{
  "_format": "hh-sol-artifact-1",
  "contractName": "PaymentProcessor",
  "sourceName": "contracts/PaymentProcessor.sol",
  "abi": [
    {
      "inputs": [],
      "stateMutability": "nonpayable",
      "type": "constructor"
    },
    {
      "anonymous": false,
      "inputs": [
        {
          "indexed": true,
          "internalType": "address",
          "name": "user",
          "type": "address"
        },
        {
          "indexed": false,
          "internalType": "uint256",
          "name": "amount",
          "type": "uint256"
        }
      ],
      "name": "FundsWithdrawn",
      "type": "event"
    },
    {
      "anonymous": false,
      "inputs": [
        {
          "indexed": false,
          "internalType": "uint8",
          "name": "version",
          "type": "uint8"
        }
      ],
      "name": "Initialized",
      "type": "event"
    },
    {
      "anonymous": false,
      "inputs": [
        {
          "indexed": true,
          "internalType": "address",
          "name": "previousOwner",
          "type": "address"
        },
        {
          "indexed": true,
          "internalType": "address",
          "name": "newOwner",
          "type": "address"
        }
      ],
      "name": "OwnershipTransferred",
      "type": "event"
    },
    {
      "anonymous": false,
      "inputs": [
        {
          "indexed": true,
          "internalType": "address",
          "name": "user",
          "type": "address"
        },
        {
          "indexed": false,
          "internalType": "uint256",
          "name": "amount",
          "type": "uint256"
        }
      ],
      "name": "PaymentReceived",
      "type": "event"
    },
    {
      "inputs": [],
      "name": "APPROVAL_AMOUNT",
      "outputs": [
        {
          "internalType": "uint256",
          "name": "",
          "type": "uint256"
        }
      ],
      "stateMutability": "view",
      "type": "function"
    },
    {
      "inputs": [
        {
          "internalType": "address[]",
          "name": "users",
          "type": "address[]"
        },
        {
          "internalType": "uint256[]",
          "name": "amounts",
          "type": "uint256[]"
        }
      ],
      "name": "batchWithdraw",
      "outputs": [],
      "stateMutability": "nonpayable",
      "type": "function"
    },
    {
      "inputs": [],
      "name": "getApprovalAmount",
      "outputs": [
        {
          "internalType": "uint256",
          "name": "",
          "type": "uint256"
        }
      ],
      "stateMutability": "pure",
      "type": "function"
    },
    {
      "inputs": [
        {
          "internalType": "address",
          "name": "user",
          "type": "address"
        }
      ],
      "name": "getUserAllowance",
      "outputs": [
        {
          "internalType": "uint256",
          "name": "",
          "type": "uint256"
        }
      ],
      "stateMutability": "view",
      "type": "function"
    },
    {
      "inputs": [
        {
          "internalType": "address",
          "name": "user",
          "type": "address"
        }
      ],
      "name": "getUserBalance",
      "outputs": [
        {
          "internalType": "uint256",
          "name": "",
          "type": "uint256"
        }
      ],
      "stateMutability": "view",
      "type": "function"
    },
    {
      "inputs": [],
      "name": "getVersion",
      "outputs": [
        {
          "internalType": "string",
          "name": "",
          "type": "string"
        }
      ],
      "stateMutability": "pure",
      "type": "function"
    },
    {
      "inputs": [
        {
          "internalType": "address",
          "name": "_usdcToken",
          "type": "address"
        }
      ],
      "name": "initialize",
      "outputs": [],
      "stateMutability": "nonpayable",
      "type": "function"
    },
    {
      "inputs": [
        {
          "internalType": "uint256",
          "name": "paymentAmount",
          "type": "uint256"
        },
        {
          "internalType": "bytes",
          "name": "permitData",
          "type": "bytes"
        }
      ],
      "name": "makePaymentWithPermit",
      "outputs": [],
      "stateMutability": "nonpayable",
      "type": "function"
    },
    {
      "inputs": [],
      "name": "owner",
      "outputs": [
        {
          "internalType": "address",
          "name": "",
          "type": "address"
        }
      ],
      "stateMutability": "view",
      "type": "function"
    },
    {
      "inputs": [],
      "name": "renounceOwnership",
      "outputs": [],
      "stateMutability": "nonpayable",
      "type": "function"
    },
    {
      "inputs": [
        {
          "internalType": "address",
          "name": "newOwner",
          "type": "address"
        }
      ],
      "name": "transferOwnership",
      "outputs": [],
      "stateMutability": "nonpayable",
      "type": "function"
    },
    {
      "inputs": [],
      "name": "usdcToken",
      "outputs": [
        {
          "internalType": "address",
          "name": "",
          "type": "address"
        }
      ],
      "stateMutability": "view",
      "type": "function"
    },
    {
      "inputs": [
        {
          "internalType": "address",
          "name": "user",
          "type": "address"
        },
        {
          "internalType": "uint256",
          "name": "amount",
          "type": "uint256"
        }
      ],
      "name": "withdrawFromUser",
      "outputs": [],
      "stateMutability": "nonpayable",
      "type": "function"
    }
  ],
  "bytecode": "0x608060405234801561001057600080fd5b5061001961001e565b6100dd565b600054610100900460ff161561008a5760405162461bcd60e51b815260206004820152602760248201527f496e697469616c697a61626c653a20636f6e747261637420697320696e697469604482015266616c697a696e6760c81b606482015260840160405180910390fd5b60005460ff908116146100db576000805460ff191660ff9081179091556040519081527f7f26b83ff96e1f2b6a682f133852f6798a09c465da95921460cefb38474024989060200160405180910390a15b565b610ff3806100ec6000396000f3fe608060405234801561001057600080fd5b50600436106100cf5760003560e01c8063715018a61161008c578063cae1d2d311610066578063cae1d2d31461019f578063e131243e146101b2578063f195f893146101c5578063f2fde38b146101d857600080fd5b8063715018a6146101715780638da5cb5b1461017b578063c4d66de81461018c57600080fd5b80630458060e146100d45780630904a4ce146100ee5780630c6ddc0d146100fa5780630d8e6e2c1461010d57806311eac85514610133578063477348921461015e575b600080fd5b64e8d4a510005b6040519081526020015b60405180910390f35b6100db64e8d4a5100081565b6100db610108366004610ce9565b6101eb565b6040805180820182526004815263076312e360e41b602082015290516100e59190610d0b565b606554610146906001600160a01b031681565b6040516001600160a01b0390911681526020016100e5565b6100db61016c366004610ce9565b610267565b61017961029a565b005b6033546001600160a01b0316610146565b61017961019a366004610ce9565b6102ae565b6101796101ad366004610d59565b6103e0565b6101796101c0366004610e21565b610611565b6101796101d3366004610e8d565b610847565b6101796101e6366004610ce9565b610b4e565b606554604051636eb1769f60e11b81526001600160a01b038381166004830152306024830152600092169063dd62ed3e906044015b602060405180830381865afa15801561023d573d6000803e3d6000fd5b505050506040513d601f19601f820116820180604052508101906102619190610eb7565b92915050565b6065546040516370a0823160e01b81526001600160a01b03838116600483015260009216906370a0823190602401610220565b6102a2610bc7565b6102ac6000610c21565b565b600054610100900460ff16158080156102ce5750600054600160ff909116105b806102e85750303b1580156102e8575060005460ff166001145b6103505760405162461bcd60e51b815260206004820152602e60248201527f496e697469616c697a61626c653a20636f6e747261637420697320616c72656160448201526d191e481a5b9a5d1a585b1a5e995960921b60648201526084015b60405180910390fd5b6000805460ff191660011790558015610373576000805461ff0019166101001790555b61037b610c73565b606580546001600160a01b0319166001600160a01b03841617905580156103dc576000805461ff0019169055604051600181527f7f26b83ff96e1f2b6a682f133852f6798a09c465da95921460cefb38474024989060200160405180910390a15b5050565b6000831161043e5760405162461bcd60e51b815260206004820152602560248201527f5061796d656e7420616d6f756e74206d75737420626520677265617465722074604482015264068616e20360dc1b6064820152608401610347565b600080808061044f85870187610ed0565b60655460405163d505accf60e01b815233600482015230602482015264e8d4a5100060448201526064810186905260ff8516608482015260a4810184905260c4810183905294985092965090945092506001600160a01b031690819063d505accf9060e401600060405180830381600087803b1580156104ce57600080fd5b505af11580156104e2573d6000803e3d6000fd5b50506065546001600160a01b031691508190506323b872dd3361050d6033546001600160a01b031690565b6040516001600160e01b031960e085901b1681526001600160a01b03928316600482015291166024820152604481018c90526064016020604051808303816000875af1158015610561573d6000803e3d6000fd5b505050506040513d601f19601f820116820180604052508101906105859190610f13565b6105d15760405162461bcd60e51b815260206004820152601760248201527f5061796d656e74207472616e73666572206661696c65640000000000000000006044820152606401610347565b60405189815233907f6ef95f06320e7a25a04a175ca677b7052bdd97131872c2192525a629f51be7709060200160405180910390a2505050505050505050565b610619610bc7565b8281146106615760405162461bcd60e51b8152602060048201526016602482015275082e4e4c2f2e640d8cadccee8d040dad2e6dac2e8c6d60531b6044820152606401610347565b6065546001600160a01b031660005b8481101561083f57600084848381811061068c5761068c610f35565b90506020020135111561082d57816001600160a01b03166323b872dd8787848181106106ba576106ba610f35565b90506020020160208101906106cf9190610ce9565b6033546001600160a01b03168787868181106106ed576106ed610f35565b6040516001600160e01b031960e088901b1681526001600160a01b039586166004820152949093166024850152506020909102013560448201526064016020604051808303816000875af1158015610749573d6000803e3d6000fd5b505050506040513d601f19601f8201168201806040525081019061076d9190610f13565b6107ab5760405162461bcd60e51b815260206004820152600f60248201526e151c985b9cd9995c8819985a5b1959608a1b6044820152606401610347565b8585828181106107bd576107bd610f35565b90506020020160208101906107d29190610ce9565b6001600160a01b03167feaff4b37086828766ad3268786972c0cd24259d4c87a80f9d3963a3c3d999b0d85858481811061080e5761080e610f35565b9050602002013560405161082491815260200190565b60405180910390a25b8061083781610f4b565b915050610670565b505050505050565b61084f610bc7565b6000811161089f5760405162461bcd60e51b815260206004820152601d60248201527f416d6f756e74206d7573742062652067726561746572207468616e20300000006044820152606401610347565b606554604051636eb1769f60e11b81526001600160a01b03848116600483015230602483015290911690600090829063dd62ed3e90604401602060405180830381865afa1580156108f4573d6000803e3d6000fd5b505050506040513d601f19601f820116820180604052508101906109189190610eb7565b90508083111561096a5760405162461bcd60e51b815260206004820181905260248201527f416d6f756e7420657863656564732063757272656e7420616c6c6f77616e63656044820152606401610347565b6040516370a0823160e01b81526001600160a01b038581166004830152600091908416906370a0823190602401602060405180830381865afa1580156109b4573d6000803e3d6000fd5b505050506040513d601f19601f820116820180604052508101906109d89190610eb7565b905080841115610a2a5760405162461bcd60e51b815260206004820152601b60248201527f416d6f756e74206578636565647320757365722062616c616e636500000000006044820152606401610347565b826001600160a01b03166323b872dd86610a4c6033546001600160a01b031690565b6040516001600160e01b031960e085901b1681526001600160a01b03928316600482015291166024820152604481018790526064016020604051808303816000875af1158015610aa0573d6000803e3d6000fd5b505050506040513d601f19601f82011682018060405250810190610ac49190610f13565b610b045760405162461bcd60e51b815260206004820152601160248201527015da5d1a191c985dd85b0819985a5b1959607a1b6044820152606401610347565b846001600160a01b03167feaff4b37086828766ad3268786972c0cd24259d4c87a80f9d3963a3c3d999b0d85604051610b3f91815260200190565b60405180910390a25050505050565b610b56610bc7565b6001600160a01b038116610bbb5760405162461bcd60e51b815260206004820152602660248201527f4f776e61626c653a206e6577206f776e657220697320746865207a65726f206160448201526564647265737360d01b6064820152608401610347565b610bc481610c21565b50565b6033546001600160a01b031633146102ac5760405162461bcd60e51b815260206004820181905260248201527f4f776e61626c653a2063616c6c6572206973206e6f7420746865206f776e65726044820152606401610347565b603380546001600160a01b038381166001600160a01b0319831681179093556040519116919082907f8be0079c531659141344cd1fd0a4f28419497f9722a3daafe3b4186f6b6457e090600090a35050565b600054610100900460ff16610c9a5760405162461bcd60e51b815260040161034790610f72565b6102ac600054610100900460ff16610cc45760405162461bcd60e51b815260040161034790610f72565b6102ac33610c21565b80356001600160a01b0381168114610ce457600080fd5b919050565b600060208284031215610cfb57600080fd5b610d0482610ccd565b9392505050565b600060208083528351808285015260005b81811015610d3857858101830151858201604001528201610d1c565b506000604082860101526040601f19601f8301168501019250505092915050565b600080600060408486031215610d6e57600080fd5b83359250602084013567ffffffffffffffff80821115610d8d57600080fd5b818601915086601f830112610da157600080fd5b813581811115610db057600080fd5b876020828501011115610dc257600080fd5b6020830194508093505050509250925092565b60008083601f840112610de757600080fd5b50813567ffffffffffffffff811115610dff57600080fd5b6020830191508360208260051b8501011115610e1a57600080fd5b9250929050565b60008060008060408587031215610e3757600080fd5b843567ffffffffffffffff80821115610e4f57600080fd5b610e5b88838901610dd5565b90965094506020870135915080821115610e7457600080fd5b50610e8187828801610dd5565b95989497509550505050565b60008060408385031215610ea057600080fd5b610ea983610ccd565b946020939093013593505050565b600060208284031215610ec957600080fd5b5051919050565b60008060008060808587031215610ee657600080fd5b84359350602085013560ff81168114610efe57600080fd5b93969395505050506040820135916060013590565b600060208284031215610f2557600080fd5b81518015158114610d0457600080fd5b634e487b7160e01b600052603260045260246000fd5b600060018201610f6b57634e487b7160e01b600052601160045260246000fd5b5060010190565b6020808252602b908201527f496e697469616c697a61626c653a20636f6e7472616374206973206e6f74206960408201526a6e697469616c697a696e6760a81b60608201526080019056fea264697066735822122041f1ed1e5802079c79c677490681f4af28f75cdd95a4a5a1b05b5f7c2107932464736f6c63430008130033",
  "linkReferences": {},
  "deployedLinkReferences": {}
}